{
    "_format": "hh-sol-artifact-1",
    "contractName": "Keep3rV2Helper",
    "sourceName": "contracts/Keep3rV2Helper.sol",
    "abi": [
        {
            "inputs": [],
            "name": "BASE",
            "outputs": [
                {
                    "internalType": "uint256",
                    "name": "",
                    "type": "uint256"
                }
            ],
            "stateMutability": "view",
            "type": "function"
        },
        {
            "inputs": [],
            "name": "FASTGAS",
            "outputs": [
                {
                    "internalType": "contract IChainLinkFeed",
                    "name": "",
                    "type": "address"
                }
            ],
            "stateMutability": "view",
            "type": "function"
        },
        {
            "inputs": [],
            "name": "KP3R",
            "outputs": [
                {
                    "internalType": "contract IKeep3rV1",
                    "name": "",
                    "type": "address"
                }
            ],
            "stateMutability": "view",
            "type": "function"
        },
        {
            "inputs": [],
            "name": "KV2O",
            "outputs": [
                {
                    "internalType": "contract IKeep3rV2Oracle",
                    "name": "",
                    "type": "address"
                }
            ],
            "stateMutability": "view",
            "type": "function"
        },
        {
            "inputs": [],
            "name": "MAX",
            "outputs": [
                {
                    "internalType": "uint256",
                    "name": "",
                    "type": "uint256"
                }
            ],
            "stateMutability": "view",
            "type": "function"
        },
        {
            "inputs": [],
            "name": "MIN",
            "outputs": [
                {
                    "internalType": "uint256",
                    "name": "",
                    "type": "uint256"
                }
            ],
            "stateMutability": "view",
            "type": "function"
        },
        {
            "inputs": [],
            "name": "SWAP",
            "outputs": [
                {
                    "internalType": "uint256",
                    "name": "",
                    "type": "uint256"
                }
            ],
            "stateMutability": "view",
            "type": "function"
        },
        {
            "inputs": [],
            "name": "TARGETBOND",
            "outputs": [
                {
                    "internalType": "uint256",
                    "name": "",
                    "type": "uint256"
                }
            ],
            "stateMutability": "view",
            "type": "function"
        },
        {
            "inputs": [],
            "name": "WETH",
            "outputs": [
                {
                    "internalType": "address",
                    "name": "",
                    "type": "address"
                }
            ],
            "stateMutability": "view",
            "type": "function"
        },
        {
            "inputs": [
                {
                    "internalType": "address",
                    "name": "keeper",
                    "type": "address"
                }
            ],
            "name": "bonds",
            "outputs": [
                {
                    "internalType": "uint256",
                    "name": "",
                    "type": "uint256"
                }
            ],
            "stateMutability": "view",
            "type": "function"
        },
        {
            "inputs": [],
            "name": "getFastGas",
            "outputs": [
                {
                    "internalType": "uint256",
                    "name": "",
                    "type": "uint256"
                }
            ],
            "stateMutability": "view",
            "type": "function"
        },
        {
            "inputs": [
                {
                    "internalType": "uint256",
                    "name": "gasUsed",
                    "type": "uint256"
                }
            ],
            "name": "getQuoteLimit",
            "outputs": [
                {
                    "internalType": "uint256",
                    "name": "",
                    "type": "uint256"
                }
            ],
            "stateMutability": "view",
            "type": "function"
        },
        {
            "inputs": [
                {
                    "internalType": "address",
                    "name": "origin",
                    "type": "address"
                },
                {
                    "internalType": "uint256",
                    "name": "gasUsed",
                    "type": "uint256"
                }
            ],
            "name": "getQuoteLimitFor",
            "outputs": [
                {
                    "internalType": "uint256",
                    "name": "",
                    "type": "uint256"
                }
            ],
            "stateMutability": "view",
            "type": "function"
        },
        {
            "inputs": [
                {
                    "internalType": "uint256",
                    "name": "eth",
                    "type": "uint256"
                }
            ],
            "name": "quote",
            "outputs": [
                {
                    "internalType": "uint256",
                    "name": "amountOut",
                    "type": "uint256"
                }
            ],
            "stateMutability": "view",
            "type": "function"
        }
    ],
    "bytecode": "0x608060405234801561001057600080fd5b50610740806100206000396000f3fe608060405234801561001057600080fd5b50600436106100ea5760003560e01c8063ad5c46481161008c578063e8bf011c11610066578063e8bf011c146101c3578063ec342ad0146101de578063ed1bd76c146101e6578063fe10d774146101f9576100ea565b8063ad5c464814610185578063d49d5181146101a0578063dbbc4a57146101a8576100ea565b806337a7f2b7116100c857806337a7f2b714610152578063525ea6311461015a5780638e686d561461016d578063904440bd1461017d576100ea565b80630421d7f2146100ef57806304d841081461011557806305e0b9a01461011f575b600080fd5b6101026100fd366004610621565b61020c565b6040519081526020015b60405180910390f35b610102620493e081565b61013a731ceb5cb57c4d4e2b2433641b95dd330a33185a4481565b6040516001600160a01b03909116815260200161010c565b610102600b81565b610102610168366004610662565b610337565b610102680ad78ebc5ac620000081565b61010261034b565b61013a73c02aaa39b223fe8d0a0e5c4f27ead9083c756cc281565b610102600c81565b61013a73169e633a2d1e6c10dd91238ba11c4a708dfef37c81565b61013a73e20b3f175f9f4e1eddf333f96b72bba138c9e83a81565b610102600a81565b6101026101f4366004610662565b6103d7565b610102610207366004610607565b61049e565b6000806102ae73169e633a2d1e6c10dd91238ba11c4a708dfef37c6001600160a01b03166350d25bcd6040518163ffffffff1660e01b815260040160206040518083038186803b15801561025f57600080fd5b505afa158015610273573d6000803e3d6000fd5b505050506040513d601f19601f82011682018060405250810190610297919061064a565b6102a4620493e08661069d565b6101f491906106d5565b90506000600a6102bf600b846106d5565b6102c991906106b5565b90506000600a6102da600c856106d5565b6102e491906106b5565b905060006103036102f48861049e565b680ad78ebc5ac62000006105c8565b905061032c83680ad78ebc5ac620000061031d84866106d5565b61032791906106b5565b6105e0565b979650505050505050565b6000610343328361020c565b90505b919050565b600073169e633a2d1e6c10dd91238ba11c4a708dfef37c6001600160a01b03166350d25bcd6040518163ffffffff1660e01b815260040160206040518083038186803b15801561039a57600080fd5b505afa1580156103ae573d6000803e3d6000fd5b505050506040513d601f19601f820116820180604052508101906103d2919061064a565b905090565b60405163ae6ec9b760e01b815273c02aaa39b223fe8d0a0e5c4f27ead9083c756cc2600482015260248101829052731ceb5cb57c4d4e2b2433641b95dd330a33185a4460448201526001606482015260009073e20b3f175f9f4e1eddf333f96b72bba138c9e83a9063ae6ec9b790608401604080518083038186803b15801561045f57600080fd5b505afa158015610473573d6000803e3d6000fd5b505050506040513d601f19601f82011682018060405250810190610497919061067a565b5092915050565b60405163d8bff5a560e01b81526001600160a01b0382166004820152600090731ceb5cb57c4d4e2b2433641b95dd330a33185a449063d8bff5a59060240160206040518083038186803b1580156104f457600080fd5b505afa158015610508573d6000803e3d6000fd5b505050506040513d601f19601f8201168201806040525081019061052c919061064a565b60405163a39744b560e01b81526001600160a01b0384166004820152731ceb5cb57c4d4e2b2433641b95dd330a33185a44602482018190529063a39744b59060440160206040518083038186803b15801561058657600080fd5b505afa15801561059a573d6000803e3d6000fd5b505050506040513d601f19601f820116820180604052508101906105be919061064a565b610343919061069d565b60008183106105d757816105d9565b825b9392505050565b6000818310156105d757816105d9565b80356001600160a01b038116811461034657600080fd5b600060208284031215610618578081fd5b6105d9826105f0565b60008060408385031215610633578081fd5b61063c836105f0565b946020939093013593505050565b60006020828403121561065b578081fd5b5051919050565b600060208284031215610673578081fd5b5035919050565b6000806040838503121561068c578182fd5b505080516020909101519092909150565b600082198211156106b0576106b06106f4565b500190565b6000826106d057634e487b7160e01b81526012600452602481fd5b500490565b60008160001904831182151516156106ef576106ef6106f4565b500290565b634e487b7160e01b600052601160045260246000fdfea2646970667358221220ab40a6eb48cc1fb1ef0415f63ff71570daa999dfb52bb8b2628b05b8bc4a755264736f6c63430008020033",
    "linkReferences": {},
    "deployedLinkReferences": {}
}